:1000000019C01895189518951895CAC61895189579
:100010001895E5C51895189518955FC61895189503
:100020001895189518951895189518951895189568
:10003000189518958FEF8DBFC8EDE0EC4E2E84E03B
:100040008EBFD4E0F4E05F2EA89584B7082E877F9A
:1000500084BF88E199278093600090936000EEEF61
:10006000F3E0A0E0B1E088278D933197E9F76624AB
:100070008DE08093000170EE7AB97FE17BB97FE378
:1000800074B970E075B977E377B978E478B973E15A
:1000900070936D00DA9870916800746070936800D6
:1000A00084E08093B10080E08093B0007091700094
:1000B00071607093700080E08093800084E0809392
:1000C000810070916F00716070936F0074B57068FB
:1000D00074BD74B5716074BD75B5726075BD78948A
:1000E00080E08093010100910101033010F009F0DC
:1000F00015C088E090E0A1E0B1E0AD90BB24A8E39A
:10010000B1E0AA0CBB1CAA0DBB1D8D939C93A1E072
:10011000B1E08C918F5F8C9308F4E5CF80ED97E090
:10012000DBDD80E08093010100910101033010F0DC
:1001300009F015C08BE090E0A1E0B1E0AD90BB24E8
:10014000A8E3B1E0AA0CBB1CAA0DBB1D8D939C9328
:10015000A1E0B1E08C918F5F8C9308F4E5CF80ED46
:1001600097E0BADDF8DC84E690E0B6DD83E090E06D
:10017000AFE1B1E08D939C9382E090E0A1E2B1E029
:100180008D939C9385E090E0A3E2B1E08D939C93E6
:1001900051D6A5E3B1E00D911C91063050E0150752
:1001A00014F009F001C007C086E090E0A5E3B1E0DB
:1001B0008D939C9310C0A5E3B1E00D911C9100308C
:1001C00050E015070CF401C006C080E090E0A5E304
:1001D000B1E08D939C93A5E3B1E00D911C9142E0B9
:1001E00050E027DDAFE0B1E04D935C93AFE0B1E0CC
:1001F0000D911C91003050E0150709F030C08CE0E3
:1002000090E0AAE3B1E08D939C9380E090E0ACE3B2
:10021000B1E08D939C9381E090E0AEE3B1E08D93EB
:100220009C93A9E0B1E08C9180FB81E00EF080E02E
:100230008F93A9E0B1E08C9181FB81E00EF080E02A
:100240009F91892B882309F402C0CAD007C0A9E076
:10025000B1E08C9182FB0EF001C01FD3BDC0013014
:1002600050E0150709F030C08CE090E0AAE3B1E05F
:100270008D939C9380E090E0ACE3B1E08D939C93F0
:1002800082E090E0AEE3B1E08D939C93A9E0B1E011
:100290008C9180FB81E00EF080E08F93A9E0B1E0CB
:1002A0008C9181FB81E00EF080E09F91892B882367
:1002B00009F402C0C1D007C0A9E0B1E08C9182FB73
:1002C0000EF001C044D388C0023050E0150709F099
:1002D00030C08CE090E0AAE3B1E08D939C9380E085
:1002E00090E0ACE3B1E08D939C9383E090E0AEE3CB
:1002F000B1E08D939C93A9E0B1E08C9180FB81E00B
:100300000EF080E08F93A9E0B1E08C9181FB81E059
:100310000EF080E09F91892B882309F402C0F4D06D
:1003200007C0A9E0B1E08C9182FB0EF001C08DD333
:1003300053C0033050E0150709F04EC08CE090E048
:10034000AAE3B1E08D939C9380E090E0ACE3B1E050
:100350008D939C9384E090E0AEE3B1E08D939C9309
:10036000A9E0B1E08C9180FB81E00EF080E08F93FA
:10037000A9E0B1E08C9181FB81E00EF080E09F91DB
:10038000892B882309F402C0BFD126C0A9E0B1E0BF
:100390008C9182FB0EF020C082E390E09DDC3C9AC1
:1003A000EEE3F3E082E390E00197449A85DC449821
:1003B00083DC482F492BC1F782E390E08DDC3C9A27
:1003C000EEE3F3E082E390E00197449A75DC449811
:1003D00073DC482F492BC1F782E090E07DDCD8CE5A
:1003E000E0E2F0E0AFE0B1E07BE7C5DC62D8A9D89D
:1003F0000ED981E090E0D2018D939C9382E082DC63
:1004000082D9229682E07ADCA3E1B1E08D919C91C1
:10041000AAE0B1E08D939C93A3E1B1E08D919C9112
:10042000A8E3B1E08D939C93C7D954DA7091090188
:100430007F77709309010895E0E2F0E0AFE0B1E06A
:100440007BE799DC36D87DD8E2D8A5E1B1E00D9103
:100450001C91A7E1B1E04D915C91040F151FAAE03A
:10046000B1E00D931C93AAE0B1E00D911C91A9E1BC
:10047000B1E04D915C91040F151FAAE0B1E00D931E
:100480001C9382E090E0D2018D939C9382E03ADC51
:100490003AD9229682E032DCA5E1B1E08D919C91BF
:1004A000A8E3B1E08D939C9387D983E090E0D201DB
:1004B0008D939C9382E026DC26D9229682E01EDC76
:1004C000A7E1B1E08D919C91A8E3B1E08D939C935D
:1004D00073D984E090E0D2018D939C9382E012DC8A
:1004E00012D9229682E00ADCA9E1B1E08D919C91BB
:1004F000A8E3B1E08D939C935FD9ECD97091090189
:100500007F77709309010895E0E2F0E0AFE0B1E099
:100510007BE731DCCED780918100887F809381009A
:10052000ABE1B1E00D911C91ADE1B1E04D915C9179
:10053000040F151FAAE0B1E00D931C93AAE0B1E0EF
:100540000D911C9142E050E0E3DBAAE0B1E00D9395
:100550001C93AFE1B1E00D911C91A1E2B1E04D918E
:100560005C91040F151FA5E0B1E00D931C93A5E06D
:10057000B1E00D911C9144E050E0CADBA5E0B1E090
:100580000D931C93A5E0B1E00D911C91A3E2B1E0A5
:100590004D915C91040F151FA5E0B1E00D931C93E4
:1005A000A5E0B1E00D911C91A3E2B1E04D915C9109
:1005B000040F151FA5E0B1E00D931C93AAE0B1E074
:1005C0000D911C91A5E0B1E04D915C91040F151FB8
:1005D000AAE0B1E00D931C9384E090E0A5E0B1E0C7
:1005E0008D939C93AAE0B1E00D911C91A5E0B1E040
:1005F0004D915C91040F151FAAE0B1E00D931C937F
:1006000084E08093810081E090E0A5E0B1E08D93EB
:100610009C93A5E0B1E00D911C91023050E01507CC
:1006200014F009F028C08DD7F2D785E090E0D20110
:100630008D939C9382E066DB66D8229682E05EDB37
:10064000ABE1B1E08D919C91A8E3B1E08D939C93D7
:10065000B3D872D9A9E0B1E08C9185FB882780F9E5
:10066000809580FBA9E0B1E08C9185F98C93A5E0A1
:10067000B1E0CCDACECF81E090E0A5E0B1E08D939F
:100680009C93A5E0B1E00D911C91023050E015075C
:1006900014F009F033C055D7BAD786E090E0D20104
:1006A0008D939C9382E02EDB2ED8229682E026DB6F
:1006B000ADE1B1E08D919C91A8E3B1E08D939C9365
:1006C0007BD8A5E0B1E00D911C91023050E01507F8
:1006D00009F002C0FFD801C02FD9A9E0B1E08C9188
:1006E00085FB882780F9809580FBA9E0B1E08C919B
:1006F00085F98C93A5E0B1E089DAC3CF7091090147
:100700007F77709309010895E0E2F0E0AFE0B1E097
:100710007BE731DBCED615D77AD7E0E0F0E0A7E073
:10072000B1E03CDBA7E0B1E00D911C9142E050E06C
:10073000EFDAA5E3B1E00D931C93A9E0B1E08C9151
:1007400086FB0EF007C0C6D87091090170687093DF
:10075000090185C0A7E0B1E00D911C9145E050E092
:1007600068DAA7E0B1E04D935C93E2EAF7E1A7E035
:10077000B1E08D919C91A7E4B0E0E4DAA7E0B1E0AC
:100780000D911C9145E050E0C3DAA7E0B1E00D9374
:100790001C93A7E0B1E00D911C914AE050E049DACA
:1007A000AEE3B1E00D931C93A7E0B1E00D911C9175
:1007B00044E650E03EDAAAE3B1E04D935C93A7E053
:1007C000B1E00D911C914AE050E033DAA0E4B1E0D1
:1007D0004D935C93A0E4B1E00D911C914AE050E090
:1007E00028DAACE3B1E00D931C9324D3A5E3B1E088
:1007F0000D911C91083250E0150714F009F001C06A
:1008000007C088E290E0A5E3B1E08D939C9310C00F
:10081000A5E3B1E00D911C91003050E015070CF4F8
:1008200001C006C080E090E0A5E3B1E08D939C9309
:10083000A5E3B1E00D911C9142E050E0FAD9A7E0A8
:10084000B1E04D935C93A7E0B1E00D911C9145E0C0
:1008500050E05EDAA7E0B1E00D931C936ECF3AD87A
:10086000709109017F777093090186E090E0A5E31C
:10087000B1E08D939C93A7E0B1E00D911C9145E010
:1008800050E0D7D9A7E0B1E04D935C93E0E0F0E011
:10089000A7E0B1E07BE771DA089581E090E0A1E1A3
:1008A000B1E08D939C93A1E1B1E08D919C91D20137
:1008B0008D939C9382E026DA88E290E0D2018D93BA
:1008C0009C9382E01FDA80E090E0D2018D939C93AC
:1008D00082E018DA85E090E0D2018D939C9382E06B
:1008E00011DAA7E2B1E0BA93AA9381D32A9688E0FD
:1008F00005DAA1E1B1E08D919C91D2018D939C9399
:1009000082E000DA8CEB97E0D2018D939C9382E039
:10091000F9D988E097E0D2018D939C9382E0F2D9D7
:1009200088EC90E0D2018D939C9382E0EBD9A3E117
:10093000B1E0BA93AA9337D42A9688E0DFD950D889
:1009400080E090E0A5E3B1E08D939C93089581E071
:1009500090E0A1E1B1E08D939C9382E080930E0141
:10096000A1E1B1E08D919C91D2018D939C9382E0A5
:10097000C9D988E290E0D2018D939C9382E0C2D9DC
:1009800080E090E0D2018D939C9382E0BBD985E01A
:1009900090E0D2018D939C9382E0B4D9AEE0B1E0B7
:1009A000AD90BB24A5E2B1E0AA0CBB1CAA0DBB1DF7
:1009B000BA93AA931CD32A9688E0A0D9A1E1B1E00A
:1009C0008D919C91D2018D939C9382E09BD98CEB6D
:1009D00097E0D2018D939C9382E094D988E097E0D0
:1009E000D2018D939C9382E08DD988EC90E0D20166
:1009F0008D939C9382E086D9AEE0B1E0AD90BB24AC
:100A0000A1E1B1E0AA0CBB1CAA0DBB1DBA93AA932D
:100A1000CAD32A9688E072D9A1E1B1E0F7D8AEE056
:100A2000B1E08C918F5F8C93A1E1B1E00D911C91AD
:100A3000043050E0150709F093CFD2D782E090E060
:100A4000A5E3B1E08D939C93089581E090E0A1E14E
:100A5000B1E08D939C9385E080930E01A1E1B1E01C
:100A60008D919C91D2018D939C9382E04BD988E229
:100A700090E0D2018D939C9382E044D980E090E095
:100A8000D2018D939C9382E03DD985E090E0D20124
:100A90008D939C9382E036D9AEE0B1E0AD90BB245B
:100AA000A5E2B1E0AA0CBB1CAA0DBB1DBA93AA9388
:100AB0009ED22A9688E022D9A1E1B1E08D919C9145
:100AC000D2018D939C9382E01DD98CEB97E0D201EB
:100AD0008D939C9382E016D988E097E0D2018D93A4
:100AE0009C9382E00FD988EC90E0D2018D939C9387
:100AF00082E008D9AEE0B1E0AD90BB24A1E1B1E065
:100B0000AA0CBB1CAA0DBB1DBA93AA934CD32A9660
:100B100088E0F4D8A1E1B1E079D8AEE0B1E08C9101
:100B20008F5F8C93A1E1B1E00D911C91033050E0F7
:100B3000150709F093CF54D784E090E0A5E3B1E026
:100B40008D939C93089584E690E0A1E1B1E08D93AC
:100B50009C9387E080930E01A1E1B1E08D919C917F
:100B6000D2018D939C9382E0CDD88CEB97E0D2019B
:100B70008D939C9382E0C6D888E097E0D2018D9354
:100B80009C9382E0BFD888EC90E0D2018D939C9337
:100B900082E0B8D8AEE0B1E0AD90BB24A1E1B1E015
:100BA000AA0CBB1CAA0DBB1DBA93AA93FCD22A9611
:100BB00088E0A4D8A1E1B1E029D8AEE0B1E08C9101
:100BC0008F5F8C9300910E010A3009F0C5CF08D7D2
:100BD00088E090E0A5E3B1E08D939C9308950F9297
:100BE0001F922F923F924F925F927F92AF92BF924D
:100BF0000F931F932F933F934F935F936F937F9325
:100C00008F939F93AF93BF93CF93DF93EF93FF9314
:100C10008FB78F9380914201A7E2B0E0A0D895D81A
:100C20008C9189238C93A2E4B1E08C918F5F8C939B
:100C300000914201033009F003C080E0809342013B
:100C4000E6ECFCE0A2E4B1E0AD90BB24AAE3B1E0A5
:100C5000AA0CBB1CAA0DBB1D8D919C91A7E3B1E012
:100C600071D8A7E3B1E08C9185B9A7E3B1E08C918D
:100C700086FBABE2B0E08C9187F98C9380914201C6
:100C8000A7E2B0E06CD861D89C91982B9C938F918F
:100C90008FBFFF91EF91DF91CF91BF91AF919F9166
:100CA0008F917F916F915F914F913F912F911F9104
:100CB0000F91BF90AF907F905F904F903F902F909B
:100CC0001F900F901895C0F9A4B0999282F8809067
:100CD000BFFFC88988C6C187EF000F921F922F926D
:100CE0003F924F925F927F92AF92BF920F931F936A
:100CF0002F933F934F935F936F937F938F939F9324
:100D0000AF93BF93CF93DF93EF93FF938FB78F93FF
:100D10008DEE97E89093850080938400A8E3B1E07E
:100D20007CD7A8E3B1E00D911C91003050E015078D
:100D300014F009F006C080E090E0A8E3B1E08D93E4
:100D40009C93AAE0B1E069D7AAE0B1E00D911C91B3
:100D5000003050E0150714F009F006C080E090E084
:100D6000AAE0B1E08D939C938F918FBFFF91EF919B
:100D7000DF91CF91BF91AF919F918F917F916F91B3
:100D80005F914F913F912F911F910F91BF90AF9025
:100D90007F905F904F903F902F901F900F901895ED
:100DA0000F921F922F923F924F925F927F92AF923B
:100DB000BF920F931F932F933F934F935F936F9324
:100DC0007F938F939F93AF93BF93CF93DF93EF93D3
:100DD000FF938FB78F93A3E4B1E089B18C93A3E421
:100DE000B1E08C9183718C9300914301033109F43C
:100DF00005C0709109017064709309018F918FBFD4
:100E0000FF91EF91DF91CF91BF91AF919F918F9122
:100E10007F916F915F914F913F912F911F910F9112
:100E2000BF90AF907F905F904F903F902F901F901A
:100E30000F90189509B14CE00423A4E3B1E00C93A2
:100E40004091330100913401041709F405C07091F9
:100E5000090170617093090100913301083009F0B4
:100E600011C0009134010C3009F003C0A5E3B1E0DA
:100E7000CDD600913401003009F003C0A5E3B1E004
:100E8000CCD63BC0003009F011C0009134010830CD
:100E900009F003C0A5E3B1E0B9D6009134010430F4
:100EA00009F003C0A5E3B1E0B8D627C0043009F0CB
:100EB00011C000913401003009F003C0A5E3B1E096
:100EC000A5D6009134010C3009F003C0A5E3B1E0D0
:100ED000A4D613C00C3009F010C0009134010430C6
:100EE00009F003C0A5E3B1E091D6009134010830C8
:100EF00009F003C0A5E3B1E090D68091340180935E
:100F0000330100914301023109F010C070910901D1
:100F1000716070930901709109017D7F70930901DF
:100F2000709109017B7F7093090135C0013109F08F
:100F300010C07091090172607093090170910901EC
:100F40007E7F70930901709109017B7F7093090185
:100F500022C0033009F010C07091090174607093D1
:100F60000901709109017D7F709309017091090158
:100F70007E7F709309010FC0709109017D7F70938E
:100F80000901709109017E7F709309017091090137
:100F90007B7F7093090100914301023181E009F0E8
:100FA00080E08F9300914301013181E009F080E0FE
:100FB0009F91892B8F9300914301033081E009F0C9
:100FC00080E09F91892B882309F410C03C9AEEE3BE
:100FD000F3E082E390E00197449A6ED644986CD691
:100FE000482F492BC1F780E08093430108958BE09F
:100FF00090E0AAE3B1E08D939C9380E190E0ACE3B4
:10100000B1E08D939C93A885B9858D919C91AEE3B9
:10101000B1E08D939C93709109017F7E70930901DB
:1010200084E690E059D680E090E0ACE0B1E08D93AA
:101030009C9300DFA9E0B1E08C9182FB0EF006C02A
:10104000709109017B7F70930901ACC0A9E0B1E008
:101050008C9184FB0EF001C00FC0ACE0B1E0D6D59E
:1010600081E090E039D6ACE0B1E00D911C91083EF2
:1010700053E0150709F0DDCFA881B9810D911C91CE
:1010800042E050E045D6A5E3B1E00D931C93A5E303
:10109000B1E00D911C91AA81BB814D915C91C9D5A4
:1010A000A5E3B1E04D935C93A881B9810D911C91AA
:1010B0004AE050E0BED5AEE3B1E00D931C93A881A9
:1010C000B9810D911C9144E650E0B3D5AAE3B1E09B
:1010D0004D935C93A881B9810D911C914AE050E039
:1010E000A8D5A0E4B1E04D935C93A0E4B1E00D91EC
:1010F0001C914AE050E09DD5ACE3B1E00D931C9308
:1011000099DEAE81BF814D915C91A5E3B1E00D9177
:101110001C910417150714F009F001C009C0AC8137
:10112000BD818D919C91A5E3B1E08D939C9315C0F9
:10113000AC81BD814D915C91A5E3B1E00D911C9115
:10114000041715070CF401C008C0AE81BF818D9152
:101150009C91A5E3B1E08D939C93A5E3B1E00D9143
:101160001C9142E050E065D5A881B9814D935C9314
:10117000A881B9810D911C91AA81BB814D915C918F
:10118000C7D5A881B9810D931C93A9E0B1E08C91DA
:1011900082FB0EF006C0709109017B7F70930901FC
:1011A00001C082CF08958BE090E0AAE3B1E08D9377
:1011B0009C9381E190E0ACE3B1E08D939C93A88592
:1011C000B9850D911C91043650E0150709F007C050
:1011D00080E090E0AEE3B1E08D939C9328C0A885B9
:1011E000B9850D911C91053650E0150709F007C02F
:1011F00082E190E0AEE3B1E08D939C9318C0A885A6
:10120000B9850D911C91063650E0150709F007C00D
:101210008FE090E0AEE3B1E08D939C9308C0A88589
:10122000B9858D919C91AEE3B1E08D939C937091C3
:1012300009017F7E7093090184E690E04DD580E03E
:1012400090E0ACE0B1E08D939C93F4DDA9E0B1E0D7
:101250008C9182FB0EF006C0709109017B7F709328
:10126000090126C1A9E0B1E08C9184FB81E00EF078
:1012700080E08F93A9E0B1E08C9180FB81E00EF0DB
:1012800080E09F91892B8F93A9E0B1E08C9181FB45
:1012900081E00EF080E09F91892B882309F401C042
:1012A0000FC0ACE0B1E0B2D481E090E015D5ACE085
:1012B000B1E00D911C91083E53E0150709F0C5CF30
:1012C000A881B9810D911C9142E050E021D5A5E3A0
:1012D000B1E00D931C93A881B9810D911C914AE056
:1012E00050E0A7D4AEE3B1E00D931C93A881B9817F
:1012F0000D911C9144E650E09CD4AAE3B1E04D93DB
:101300005C93A881B9810D911C914AE050E091D481
:10131000A0E4B1E04D935C93A0E4B1E00D911C9189
:101320004AE050E086D4ACE3B1E00D931C9382DD3B
:10133000AC81BD814D915C91A5E3B1E00D911C9113
:101340000417150780E014F009F081E08F93A9E0FD
:10135000B1E08C9180FB81E00EF080E09F918923C9
:10136000882309F40FC0A5E3B1E00D911C91AC8175
:10137000BD814D915C91041B150BA5E3B1E00D936C
:101380001C9317C0A9E0B1E08C9180FB0EF011C056
:10139000A5E3B1E00D911C91AA81BB814D915C91B7
:1013A000040F151FA5E3B1E00D931C9384E690E0B4
:1013B00093D4AA81BB814D915C91A5E3B1E00D91DD
:1013C0001C910417150780E00CF481E08F93A9E0CD
:1013D000B1E08C9181FB81E00EF080E09F91892348
:1013E000882309F40FC0AC81BD810D911C91A5E348
:1013F000B1E04D915C91040F151FA5E3B1E00D9391
:101400001C9317C0A9E0B1E08C9181FB0EF011C0D4
:10141000A5E3B1E00D911C91AA81BB814D915C9136
:10142000041B150BA5E3B1E00D931C9384E690E03B
:1014300053D4A5E3B1E00D911C91003050E01507A5
:101440000CF401C009C0AE81BF818D919C91A5E3D0
:10145000B1E08D939C9314C0AE81BF814D915C919E
:10146000A5E3B1E00D911C910417150714F009F0E4
:1014700001C006C080E090E0A5E3B1E08D939C93AD
:10148000A5E3B1E00D911C9142E050E0D2D3A881D8
:10149000B9814D935C93A9E0B1E08C9182FB0EF091
:1014A00006C0709109017B7F7093090101C013CFC1
:1014B0000895A9E0B1E08C9181FBA9E0B1E08C91A5
:1014C00085F98C93709109017D7F70930901A9E0E2
:1014D000B1E08C9181FBA9E0B1E08C9180F98C9313
:1014E00081E08093010100910101033010F009F0C7
:1014F00015C08BE090E0A1E0B1E0AD90BB24A8E383
:10150000B1E0AA0CBB1CAA0DBB1D8D939C93A1E05E
:10151000B1E08C918F5F8C9308F4E5CF80E08093ED
:101520000201489BFECF499BFECF4C9BFECF84E639
:1015300090E0D2D3489BFECF499BFECF4C9BFECF81
:101540000895A9E0B1E08C9187FB0EF45FC0709123
:1015500009017F7B7093090180E08093020180E0A4
:101560008093010170E077BDB4D3A9E0B1E08C9124
:1015700085FB0EF003C05D9A459802C0459A5D98C0
:10158000A9E0B1E08C9186FB0EF007C0A3D1709169
:10159000090170687093090133C0A2E0B1E00D91B8
:1015A000112742E050E045D3A3E0B1E04D935C93B6
:1015B000AFE1B1E04D915C91A3E0B1E00D911C91E0
:1015C0000417150709F001C01BC0A2E0B1E08C911F
:1015D0008F5F8C938BE090E0AAE3B1E08D939C93B6
:1015E0008AE090E0ACE3B1E08D939C938BE090E0D7
:1015F000AEE3B1E08D939C9384EF91E06DD3C0CFC7
:101600008BE090E0ACE3B1E08D939C930895A9E06A
:10161000B1E08C9187FB0EF475C080E080930201ED
:1016200081E08093010173E377BDA9E0B1E08C9183
:1016300086FB0EF007C04ED170910901706870935F
:10164000090160C0A2E0B1E00D91112742E050E035
:10165000F0D2A3E0B1E04D935C93A1E2B1E04D91F3
:101660005C91A3E0B1E00D911C910417150709F0FE
:1016700001C048C0A2E0B1E08C918F5F8C93A9E0DB
:10168000B1E08C9185FB0EF010C0A1E0B1E08C912F
:101690008F5F8C9300910101043010F009F001C0BC
:1016A00003C081E0809301010DC080910101815050
:1016B0008093010100910101013008F003C084E032
:1016C000809301018AE090E0A1E0B1E0AD90BB24FD
:1016D000A8E3B1E0AA0CBB1CAA0DBB1D8D939C9383
:1016E00084EF91E0F9D28BE090E0A1E0B1E0AD9021
:1016F000BB24A8E3B1E0AA0CBB1CAA0DBB1D8D93B3
:101700009C9393CF0895A9E0B1E08C9187FB0EF4F0
:1017100047C0A881B981AD90BD90A5E2B1E0AA0C07
:10172000BB1CAA0DBB1D0D911C9145E050E081D260
:10173000A881B981AD90BD90A5E2B1E0AA0CBB1C17
:10174000AA0DBB1D4D935C93E2EAF7E1A881B98134
:10175000AD90BD90A5E2B1E0AA0CBB1CAA0DBB1DCB
:101760008D919C91A7E4B0E0EDD2A881B981AD90B4
:10177000BD90A5E2B1E0AA0CBB1CAA0DBB1D0D914A
:101780001C9145E050E0C4D2A881B981AD90BD90D4
:10179000A5E2B1E0AA0CBB1CAA0DBB1D0D931C93C6
:1017A00008950001020304060A0F141E288C96A057
:1017B000AABEC8D2E6F0FF00A9E0B1E08C9187FB99
:1017C0000EF487C0A9E0B1E08C9186FB0EF007C053
:1017D00081D0709109017068709309017AC0AAE004
:1017E000B1E00D911C91073E53E0150714F009F08C
:1017F00001C03AC000910A0142E0D8D2A1E0B1E0B4
:101800008C9300910101003009F017C089E090E04D
:10181000AAE3B1E08D939C93AAE3B1E08D919C91F2
:10182000ACE3B1E08D939C93AAE3B1E08D919C91E0
:10183000AEE3B1E08D939C9316C08BE090E0AAE3F9
:10184000B1E08D939C93AAE3B1E08D919C91ACE3C0
:10185000B1E08D939C93AAE3B1E08D919C91AEE3AE
:10186000B1E08D939C932CC0AAE0B1E00D911C9146
:101870004AE050E0DED1AEE3B1E00D931C93AAE064
:10188000B1E00D911C9144E650E0D3D1AAE3B1E060
:101890004D935C93AAE0B1E00D911C914AE050E0B9
:1018A000C8D1A0E4B1E04D935C93A0E4B1E00D9108
:1018B0001C914AE050E0BDD1ACE3B1E00D931C9324
:1018C000A8E3B1E00D911C91003050E0150709F03C
:1018D00079CF0895A9E0B1E08C9187FB0EF42BC07D
:1018E00070E077BD3C9AEEE3F3E088EE93E0019779
:1018F000449AE2D14498E0D1482F492BC1F78BE0BC
:1019000090E0AAE3B1E08D939C938AE090E0ACE391
:10191000B1E08D939C938BE090E0AEE3B1E08D93CA
:101920009C9382E090E0D8D15D984598A3E2B1E025
:10193000ED91FC91B8D1089570E077BD80E080937F
:10194000020180E090E0A3E0B1E08D939C93A9E0D8
:10195000B1E08C9186FB0EF002C0BCDF40C0A2E07B
:10196000B1E00D91112742E050E063D1A3E0B1E076
:101970004D935C93A3E2B1E04D915C91A3E0B1E0A3
:101980000D911C910417150709F001C028C0A2E0B1
:10199000B1E08C918F5F8C938BE090E0AAE3B1E093
:1019A0008D939C938AE090E0ACE3B1E08D939C939F
:1019B0008BE090E0AEE3B1E08D939C93A3E0B1E0C7
:1019C0004D915C9102E010E00417150714F009F046
:1019D00002C05D98459884EF91E07ED1B8CF08951C
:1019E0008AE090E0AAE3B1E08D939C93AAE3B1E092
:1019F0008D919C91ACE3B1E08D939C93AAE3B1E00F
:101A00008D919C91AEE3B1E08D939C9388EE93E031
:101A100063D18BE090E0AAE3B1E08D939C93AAE3BD
:101A2000B1E08D919C91ACE3B1E08D939C93AAE3DE
:101A3000B1E08D919C91AEE3B1E08D939C9384EFE6
:101A400091E04AD1F89481E0809301010091010175
:101A5000093010F009F03AC0E1E0F1E0A190BB24B8
:101A6000E0E0F0E0AA0CBB1CEA0DFB1DA4E1B0E035
:101A700095D1A1E0B1E0AD90BB24A1E1B1E0AA0C09
:101A8000BB1CAA0DBB1D0D911C910417150709F471
:101A900016C0E1E0F1E0A190BB24E0E0F0E0AA0C88
:101AA000BB1CEA0DFB1DA1E0B1E0AD90BB24A1E1A0
:101AB000B1E0AA0CBB1CAA0DBB1D7BE75ED1A1E067
:101AC000B1E08C918F5F8C9308F4C0CF81E080935C
:101AD000010100910101093010F009F03AC0E1E084
:101AE000F1E0A190BB24E2E1F0E0AA0CBB1CEA0DFE
:101AF000FB1DA4E1B0E052D1A1E0B1E0AD90BB2468
:101B0000A5E2B1E0AA0CBB1CAA0DBB1D0D911C9156
:101B10000417150709F416C0E1E0F1E0A190BB2419
:101B2000E2E1F0E0AA0CBB1CEA0DFB1DA1E0B1E074
:101B3000AD90BB24A5E2B1E0AA0CBB1CAA0DBB1D55
:101B40007BE71BD1A1E0B1E08C918F5F8C9308F40F
:101B5000C0CF78940895E0E2F0E0A1E0B1E01CD1BC
:101B6000A1E0B1E00D91112742E050E0D1D0A5E312
:101B7000B1E00D931C9381E080930101009101017C
:101B8000063010F009F01CC0E1E0F1E0A190BB24A8
:101B9000E2E1F0E0AA0CBB1CEA0DFB1DA1E0B1E004
:101BA000AD90BB24A5E2B1E0AA0CBB1CAA0DBB1DE5
:101BB000F5D0A1E0B1E08C918F5F8C9308F4DECF7B
:101BC00081E08093010100910101093010F009F0DA
:101BD0001CC0E1E0F1E0A190BB24E0E0F0E0AA0C41
:101BE000BB1CEA0DFB1DA1E0B1E0AD90BB24A1E15F
:101BF000B1E0AA0CBB1CAA0DBB1DD0D0A1E0B1E086
:101C00008C918F5F8C9308F4DECF0895ED91FC9159
:101C1000EF5FFF4FFC93EE930895ED91FC91E1503F
:101C2000F040FC93EE93089508D072D000FC10D0E1
:101C3000089503D01ED001F8F9CF0024E89457FF8F
:101C400002C009D0689400F80BD010F80124089560
:101C500002D009D00895509540954F5F5F4F089589
:101C6000E89417FF0895009510950F5F1F4F689433
:101C70000895352F242FE894452B11F46894089586
:101C8000512F402F0027112780E1440F551F001FBF
:101C9000111F021B130B416018F4020F131F4E7F1C
:101CA0008A9599F7089588EE93E016D03197D9F781
:101CB00008953197F1F70895AE2FBF2F11974A2F4E
:101CC0004B2BE1F70895689462F80895E89462F860
:101CD000089581E090E000C0EF93FF93EE27E82B9A
:101CE000E92B31F0E0EDF7E03197F1F70197D1F70B
:101CF000FF91EF910895481A590A0895481A8827C4
:101D0000580A089599275A924A92480E591E0895E2
:101D10000F92B801469F8001479F100D569F100DEE
:101D20000F900895C89531960020089591E005C060
:101D300092E003C094E001C098E0F4DF0D929A9520
:101D4000E1F70895E80FF91FF1CF91E0882321F022
:101D50008894991F8A95E9F7892F9095089588307E
:101D600018F011968850FBCF0895F999FECFE1BD88
:101D7000F2BD3196089591E001C092E07B3751F4B5
:101D80007FB7F894F2DF8D9180BDFA9AF99A9A950F
:101D9000C9F77FBF7727089591E001C092E0E5DFA2
:101DA000F89A80B58D939A95D1F70895FF93881B83
:101DB000F9E0001FFA9511F4FF910895881F841B24
:0C1DC00018F4840F8894F5CF0894F3CF3A
:00000001FF
